:020000041000EA
:10000000002008205D0100101301001015010010F0
:100010001101001011010010110100101101001058
:100020001101001011010010110100101701001042
:10003000110100101101001095F002101B010010B9
:100040001D0100101D0100101D0100101D010010F8
:100050001D0100101D0100101D0100101D010010E8
:100060001D0100101D0100101D0100101D010010D8
:100070001D0100101D0100101D0100101D010010C8
:100080001D0100101D0100101D0100101D010010B8
:100090001D0100101D0100101D0100101D010010A8
:1000A0001D0100101D0100101D0100101D01001098
:1000B0001D0100101D0100101D0100101D01001088
:1000C0001D0100101D0100101D0100101D01001078
:1000D0001D0100101D0100101D0100101D01001068
:1000E0001D0100101D0100101D0100101D01001058
:1000F0001D0100101D0100101D0100101D01001048
:100100001D0100101D0100101D0100101D01001037
:1001100000BE00BE00BE00BE00BE00BEEFF3058004
:10012000103800BEF2EB887198360E1000370E10B2
:10013000BC01001090A31AE7D3DEFFFF420121109B
:10014000FF01000018510E00793512AB4FF000008E
:100150002849086006C881F3088810474FF05040CE
:10016000006810B14FF00000F2E723496B46ADF58F
:10017000807D6A4600F01FF868460130804740B035
:100180000EA40ECC002902D000F015F8F9E71B49A7
:100190001B4A002000E001C19142FCD1002080F305
:1001A0000A8818498847184988471849884700BE6F
:1001B000FDE701C901C29A42FBD37047788F09104D
:1001C00000000E4000010E4000370E10100100200C
:1001D000601C002050520E10000008200000082073
:1001E00050520E10001008200010082000000000DF
:1001F0007047000008ED00E0788F0910601C0020B7
:10020000E0300020C1680910D9EA0210B96809106D
:10021000F8B500BF0348044B834202D0034B03B13F
:1002200018477047601C0020601C00200000000080
:10023000064B0749C91A891048BF0131491003D03C
:10024000044B0BB101481847704700BF601C0020E9
:10025000601C00200000000010B5064C237843B954
:10026000FFF7D8FF044B13B10448AFF3008001231C
:10027000237010BDE01D002000000000788F0910E1
:1002800008B5044B1BB104490448AFF30080BDE836
:100290000840CDE700000000E41D0020788F091021
:1002A000034610B5500C1446C2F34F0221B1E107CA
:1002B00002D40C481AF06EFD904206D198420FD03D
:1002C00002460949094819F09CFD984204D9C21A0E
:1002D0000749064819F095FD9A4201D20549F1E710
:1002E00010BD00BF789009108290091018B20A1052
:1002F00090900910989009102DE9F74F0024DDE93E
:100300000CA706468B461546A046A1460193019BC5
:100310009C4204D1B1453CD222481AF03BFDB44284
:1003200010D2BAF802209205F6D45BF8240009F145
:1003300001099AF80220012A24D10EF0B1FE07F833
:10034000240017E0BAF800100022C900284641F046
:1003500002010AF01BFB88B9BAF80220D30505D5C3
:10036000BAF800201049114819F04BFDDAF80420C2
:1003700047F8242001340AF1080AC8E7406808F168
:100380000108D6E7022A01D10EF042FD47F8240009
:10039000F0E72B68B8EBD30F01D20548BDE703B0F7
:1003A000BDE8F08FB6900910B190091018B20A108C
:1003B000C090091070B51E460446154686B002EB83
:1003C000800203A80AF0B6FA0B9B294601930A9B08
:1003D0002046009303AA3346FFF78EFF06B070BD98
:1003E00008B501481AF0F8FCCA90091010B5044687
:1003F000016188000AF062FA606110BD10B5044620
:1004000011B1C0680AF082FA6069BDE810400AF0D4
:100410007DBA012938B504460D460BDC02694FF060
:10042000FF314069920098F0F3F800232570637063
:10043000636038BD40680AF041FA6368E060A36019
:10044000F3E70246407810B548B913785468022B98
:1004500008BFD368214408BF1819516010BD00209F
:10046000FCE7002343700378012B9EBF4268436979
:1004700043F82120704742684B1E134449420B4009
:100480004360704738B50C461546FFF7DAFF10B1E8
:100490000444A04200D138BD00F8015B2D0AF8E702
:1004A00010B50C460221FFF7CCFF10B10470240AEE
:1004B000447010BD38B50D4604211446FFF7C1FF46
:1004C00028B1057084702D0A240A4570C47038BDA7
:1004D000012970B5054606DC002909DA023921F048
:1004E0000104FE2606E08B1E012BF7D80024F8E756
:1004F0000024F226284646F43541FFF7D1FF44B1E7
:100500007F2C09D844F43041284641F08001FFF7A0
:10051000C7FFC5E9066470BDA300A201DBB202F407
:10052000E0421A434FF2AD21284642F45062FFF7F1
:10053000C1FFEEE7C16910B5044629B17F290BD888
:1005400041F43041FFF7ACFFA1692046BDE81040FF
:1005500041F43D41FFF7A4BF8B008A01DBB202F4F6
:10056000E0421A434FF20D2142F45062FFF7A2FF1E
:10057000EAE7114341EAC301FFF792BF072A85BFAB
:10058000083AD200D20042F04002072985BF08395C
:100590001143114341F0800141F48C41FFF780BFCA
:1005A00030B4DCB244EA02225C101D0104F4806421
:1005B000C3F3033305F4E04523432A43194330BC16
:1005C000FFF778BF38B50546436953F821404368C3
:1005D000E41A043CC4F34A0141F46041FFF760FFB0
:1005E0002B78022B0AD1B4F5006F07D36FF30A04FE
:1005F00014F5006F14BF0020012038BD0120FCE776
:10060000F8B54469074654F8224042681E46A41AC9
:10061000043C6510BBB9EDB245EA012141F45041FB
:10062000FFF73EFF3B78022B0BD1FF2C09D924F0BA
:10063000FF0414F5807F14BF0024012426463046B1
:10064000F8BD0124FAE76211C5F30A0502F400526D
:100650002A43A512231205F48065C4F3053403F47C
:10066000006325431A4345EA811142F4004241F4F4
:100670007041FFF71FFFE2E738B50546436953F8BD
:1006800021404368E41A043CC4F34F02C4F30A3126
:1006900042F4784241F47041FFF70CFF2B78022BB3
:1006A0000AD1B4F5800F07D36FF3150414F5800F4A
:1006B00014BF0020012038BD0120FCE7F8B5044636
:1006C0000D461646476813460A464FF24021FFF78B
:1006D00067FF20462A464FF2C021330CFFF760FF28
:1006E0003846F8BD072910B4044609D8FF2A07D8B0
:1006F00042EA01215DF8044B41F40051FFF7D0BEFE
:10070000B2F5803F08D2134620460A465DF8044BF6
:100710004FF24021FFF744BF20465DF8044BFFF73E
:10072000CDBF2DE9F84341EA0207072F06460C46E4
:100730001546DDF820904AD803FA09F7FF2F0CD8A8
:10074000914201D0FFF71AFF47EA042141F44051DA
:100750003046BDE8F843FFF7A3BEFF2B4FEAC108C0
:1007600014D8914218D043EA012343F40051FFF713
:1007700097FE44EA8911304641EA0801FFF790FEEE
:1007800048EA8511214341F4C051E1E7914203D089
:100790003A46FFF7A7FFF3E7012584F0070905FABA
:1007A00009F5304645F43441FFF77AFE3A464946AA
:1007B0003046FFF797FF44EA891141EA080141F406
:1007C000C0513046FFF76CFE45F43C41C0E7BDE840
:1007D000F883000008B50378012B04D9FF2902D95A
:1007E00005481AF0F9FAC9B241EA022141F4104170
:1007F000BDE80840FFF754BEEE90091008B5037835
:10080000012B04D9FF2A02D905481AF0E5FAD2B221
:1008100042EA012141F41841BDE80840FFF740BE1B
:10082000EE900910D2B242EA012141F42841FFF7CB
:1008300037BE38B50C460546436953F82230426846
:100840009B1A43F001030A460A3B4FF24021FFF78F
:10085000A7FE2346284622464FF43241FFF789FE81
:10086000210101F0800104F00704214341F4884193
:100870002846BDE8384041F07801FFF711BE00007E
:1008800073B51F2B05460C46069E11D81143072948
:100890000ED81A4944EAC202895D41F0010142EAD8
:1008A000C12141EA831102B0BDE87040FFF7F8BDF5
:1008B00003FA06F1B1F5805F0DD2284642EA4616EA
:1008C00041EA043246F4784141F0900102B0BDE8BB
:1008D0007040FFF7EFBD214628461F3B0096FFF70B
:1008E00020FF064BE1009B5D284643F0010341EAEF
:1008F000C321214341F4F861D5E700BF0C980A10E9
:100900002DE9F7431F2B06460C46154698460A9FCD
:1009100010D841EA0203072B0CD8204BD95D44EADA
:10092000C12141EAC20141EA881103B0BDE8F043A8
:10093000FFF7B6BD08FA07F2B2F5805F0DD2304678
:1009400045EA471141F4784142EA043241F080011E
:1009500003B0BDE8F043FFF7ADBD4FF0010909FA60
:1009600005F9304649F43441FFF79AFD2A462946F5
:100970003046A8F11F030097FFF7D3FE074B44EA68
:10098000C501DB5D304641EAC32141F4F861FFF760
:1009900087FD304649F43C41C7E700BF0C980A1078
:1009A000436910B453F8211043680446CB1A043B42
:1009B0000131C3F34A020ED0D91C0CDA23F4FF61D3
:1009C00021F0070111F5006F05D15DF8044B42F4E9
:1009D0006041FFF765BDC3F30A33204642F4384255
:1009E0005DF8044B43F47041FFF764BD436930B4D4
:1009F00053F8222043680546D31A043B01324FEADC
:100A000063040ED0DA1C0CDA23F0FF0212F5807FAB
:100A100007D1E4B244EA012141F4504130BCFFF770
:100A20003FBD5A11C4F30A0402F4005222439C123F
:100A3000181204F48064C3F3053300F40060234308
:100A4000024343EA8111284630BC42F4004241F49B
:100A50007041FFF72FBD37B51446022205460B46FD
:100A6000009221460722FFF70BFF2846E10041F4E0
:100A70008F4103B0BDE83040FFF712BD73B50DF1F3
:100A800005050B46294602F07F06D2092C4605F8DB
:100A9000016DF8D1491B984740B10146A31E01AC36
:100AA00013F8012FA34203D15B1BC25402B070BDE7
:100AB00062F07F0201F8012BF2E703460268002092
:100AC00010B512F8011B01F07F04090644EAC010BA
:100AD000F7D41A6010BD07B5019001A8FFF7EDFF2C
:100AE00003B05DF804FB10F9013B002BFBDB704702
:100AF0002DE9F04F1E46838991B00293436804921A
:100B00005A1C42601A7800230446894698461F46BC
:100B1000D0F800B002F0030501936168120601F1FC
:100B200001001BD400234FF0060ECDE907336268A5
:100B30000898511C616012780EFB03FC02F0010161
:100B4000994008430890C2F34501079801FA0CF157
:100B500008431206079018D50133E8E760600A7869
:100B60000198C2F3801199400F4302F004019940AB
:100B70000D43C2F3C0019940084302F001019940BE
:100B8000019048EA01080133C7E70021A368E18129
:100B900003F1040A0393029B50469B001A460593F7
:100BA00097F036FD029B019A5B1B06939B1A013B53
:100BB0004D450AEB830107F0040273D22AB94B4674
:100BC0002A469649964819F01CF90A1FA9EB050018
:100BD00006EB85010A93099215F086FE099AAC4648
:100BE00011460A9B4AF823003246059B0398184495
:100BF00006EB8C039A427BD1049A07F008030B930F
:100C0000134307F0020700F0EF80002F75D0104665
:100C10000A910FF09BFE0A990990086000230A933D
:100C2000019B06EB8909EB180C930A9B049A9342EB
:100C300065D16FF0030202FB08F208F1030602EB34
:100C40008602B0004646069B5A444FEA83090AEBE7
:100C500083031F1F002E40F09380059A0C38034435
:100C600052449A4200F296806068FFF73CFF0022EF
:100C700095420F9040F09780039D08F104084D4481
:100C8000019BB34240F09380079B6768089E1F4416
:100C9000029B3E445D1EBE4240F0B580666011B0CE
:100CA000BDE8F08F1AB15F4A04394AF82320049A4C
:100CB00007F00803134312D1A5EB08024A4515D8E3
:100CC000029A08EB0903A2EB0900039A5B1B0BEBEA
:100CD000830302EB80000BEB880C634501D1CC460B
:100CE00082E71A69043340F80429F6E74B4668E7BF
:100CF00052F804CB40F804C97CE709978EE7606896
:100D0000FFF7F1FE0021D9F800600F900C9B8B4299
:100D100003D847BB4449F20816E00FA80D91FFF72E
:100D2000CCFEDBF804200D99926832F81020D20036
:100D300042F00202964214D1029B5A1E521A5AF8ED
:100D4000221021B13949F208354819F05AF8D9F87A
:100D500004104AF822100A9B09F1080901330A938A
:100D600063E70131D2E7099B01223146181D09F0E2
:100D70000DFE4268002AE5D1D9F804204260EAE776
:100D800057F804CFBCF1000F02D152F82610396099
:100D9000013E5FE753F8040B00287FF462AFD21ADC
:100DA00023499210D0E7FFF79EFE013260E70FA8BB
:100DB000FFF783FEDBF8043055F804299B6833F80D
:100DC000107062B90B9B63B15BF82800F90041F029
:100DD0000201043009F0DAFD18B143686B60013696
:100DE0004EE73A461349AFE7019B13B1124819F099
:100DF000D1FF002F3FF448AF019803910FF0A6FDFB
:100E00000399086040E717F8018BA5EB08085AF82A
:100E100028000EF0A3FF4AF828003CE78290091052
:100E200018B20A1008C30A100F9109100491091092
:100E3000159109101F9109102791091030B4056808
:100E4000ED68456000F11005856030BCFFF750BECD
:100E500030B40468E568A4682D680DB154F82540E5
:100E6000446000F11004846030BCFFF741BE000014
:100E700040280B4610B533D00DD800F0FD003C28BB
:100E800009D1622918D848294FF0010106D8422B10
:100E900031D0482B54D02F4819F0CCFD40F2C94432
:100EA000A3F14900C0B201FA00F020424DD1622BFB
:100EB00021D0512BEFD111E0A1F16403DBB20D2B56
:100EC000E9D8012101FA03F313F4927F3DD113F025
:100ED000120F35D142F201000342DCD0082030E08D
:100EE00062291AD8482908D8422903D0482925D090
:100EF0000129D0D10121084623E0A1F149000121B7
:100F000040F2C944C0B201FA00F020421FD1622B66
:100F1000F1D0512BBFD10821EDE7A1F16403D9B283
:100F20000D29B8D801238B4013F4927F0CD142F2E3
:100F300001010B42EFD113F0120FACD00221DAE71E
:100F4000022002B1116010BD04210420F9E7042140
:100F5000D1E700BF38910910512808B52CD8412895
:100F600003D8012857D0002051E042380F28FAD882
:100F700001A353F820F000BF17100010670F0010F6
:100F8000670F0010670F0010670F0010670F001049
:100F90002110001027100010670F0010670F0010BD
:100FA00027100010670F0010670F00106F1000105F
:100FB00075100010431000106238C3B20F2BD2D846
:100FC0000F28D0D801A353F820F000BF0D10001057
:100FD000670F001061100010670F00105310001011
:100FE000670F00101B10001075100010670F001025
:100FF000670F001075100010670F0010670F0010CA
:10100000670F0010670F0010331000108856400063
:1010100040F001002DE0885CF9E731F91200F6E7B5
:1010200031F81200F3E751F82200BDE8084011F052
:1010300012BA01EBC201D1E90001BDE8084011F08C
:10104000DFB901EBC201D1E90001BDE8084011F0B0
:10105000F2B901EB82010868BDE8084010F02AB936
:1010600001EBC201D1E9000191F01CFCF4E751F859
:10107000220008BD51F82200BDE8084011F0D0B9A7
:1010800070B50446084652B94FF0FF35621E13444E
:1010900010B193F90010C8170146002209E001259C
:1010A000F6E71E78090241EA10612B4446EA002067
:1010B0000132A242F5D170BD2DE9F3410646174633
:1010C00001AA0D4698461C68FFF7D2FE402E07D1B4
:1010D0003C26019BE41B5A1E14445B421C403C44CA
:1010E0002318C8F800302346A6F13E04624262414C
:1010F0005A2D94BF00210121FFF7C2FF4F2D024658
:101100000B465AD0532D04D102B0BDE8F04113F084
:101110008DBD652D25D1C2F30903C2F384221F2A98
:1011200080B21AD062B170325B03000443EAC2534A
:1011300000F00040184302B0BDE8F04110F0BAB82A
:101140006BB1702459008BB24905224604F1FF347B
:10115000F8D5A3F580639BB2E6E7FF22E4E71A46E1
:10116000E2E7662DE7D0642D02D191F09BFBE2E728
:101170005A2D12D910F1804441F10005B4F1004F0D
:1011800075F1000504D202B0BDE8F04111F048B994
:1011900002B0BDE8F04111F033B9B0F1804F73F106
:1011A000000104D202B0BDE8F04111F054B9194673
:1011B00002B0BDE8F04111F03EB902B0BDE8F081E7
:1011C00013B504460193104629B9224601A997F0A8
:1011D000A5FC02B010BD01AB23441444A242F8D0D8
:1011E00013F8011D02F8011BF8E700002DE9FF4785
:1011F0000C9F8046144601AA89469A463D68FFF72F
:1012000037FEB8F1400F064609D14FF03C08019B6C
:10121000A5EB0A055A1E15445B421D405544A8F132
:101220003E01AB193B604F424F41B9F1650F1DD0F4
:1012300014D8B9F14F0F41D0B9F1640F51D0A307C1
:101240006CD122683F4B9A4268D12B4632463946D0
:10125000204611F00BF804B0BDE8F087B9F1660F35
:10126000EDD120460DF02CFE044627E020460DF07F
:1012700027FEC204C0F34931C0F3C75348BF013150
:10128000FF2B2AD08BB1B3F1700221D50B3226DBB4
:1012900041F4806189B2C3F1700341FA03F313F0A2
:1012A0000102C3F34E0101D001310022264B03EAB3
:1012B000104341EA030444EA8224A4B2042E3046D7
:1012C00023462A46394628BF0420FFF779FFC2E7A4
:1012D0003F2AEBDD1F220021E8E71F22E6E700217D
:1012E000E3E720460DF0ECFD94F05CFBCDE9020154
:1012F00004AB03EB87032A4653F8083C3946042025
:10130000FFF75EFFB8F13E0818BF4FF0010804ABCD
:1013100003EB880858F8084C0435CFE720460DF059
:1013200077FD042E0446C9D90028B4BFFF2100214F
:101330002846324697F06CF9B8F13E0F04BF331FD0
:10134000ED18BBE70CB80A100080FFFF10B504468B
:10135000712C184607D8612C06D8012C50D0423C7D
:10136000E3B20F2B26D910BD623C0F2CFBD801A392
:1013700053F824F001140010671300102B14001010
:1013800067130010191400106713001005140010E3
:10139000391400106713001067130010391400107F
:1013A0006713001067130010671300106713001015
:1013B0000B1400100F2CD6D801A353F824F000BF53
:1013C000011400106713001067130010671300105A
:1013D0006713001067130010051400103914001073
:1013E0006713001067130010391400106713001002
:1013F0006713001067130010391400100B1400104D
:101400008854B0E721F81200ADE701EBC203C4171E
:1014100041F832005C60A6E707EE900AF8EEE77A42
:1014200001EB8202C2ED007A9DE701EBC20491F06C
:1014300047FAC4E9000196E741F8220093E700BFAC
:1014400064282DE9F04106460F4614461D4620D07B
:10145000662816D04F2826D013F0030826D11A6824
:10146000184B9A4222D1424601464020FFF700FD28
:10147000414600FB047302462846BDE8F04110F0E7
:10148000F5BE184601EB82040DF01AFD2060BDE8A0
:10149000F081184601EBC2040DF012FD94F082FABF
:1014A000C4E90001F3E741F82230F0E728460DF0E7
:1014B000AFFC2246034639463046BDE8F041FFF70F
:1014C00045BF00BF0CB80A1037B50C4601A920680B
:1014D00013F0F0FE0546606813F06CFE2946002309
:1014E000019A09F0B7F90546A06813F063FE512888
:1014F00008D041F28E03984212D0502812D00A48E8
:1015000019F098FA0121002328461A4618F08AFD9E
:101510000649044608200DF092FB446003B030BD3C
:101520000021F0E70221EEE743910910DCAE0A103A
:101530004FF05043F0B515461A68334B012853F865
:10154000223085B0D3E903CE1AD94C68062C14D0CA
:10155000A6070FD122682D4EB2420BD12646022893
:1015600010D08A68062A0DD0900703D11068274E44
:10157000B0422BD0002019F00DFC66467446EEE711
:10158000664674460F68BA0722D13A6820498A42F3
:101590001ED16846CDE902EC1E49C3E903640DF093
:1015A000D7FA7868830708D103681B4A934202D0B0
:1015B0001A4A934201D143685C6018F02DFD04463D
:1015C00001200DF0D3FA204605B0F0BD1646D9E74C
:1015D0006DB9384613F0EEFD09F04AF9012533469E
:1015E0002246294605B0BDE8F04018F01BBD69460B
:1015F000052238460DF042FEDDE900120023DF200F
:1016000009F028F9EBE700BF3C2400200CB10A10D8
:10161000DCAE0A10059B011050B60A1030B60A1055
:101620000222FFF785BF0122FFF782BF0022FFF7EA
:101630007FBF70B506460D4600246B68A34200D8F4
:1016400070BDAB6853F8341021B1042902D0304684
:1016500011F03FF90134F0E72DE9FF4738B9564959
:1016600056480BF009F8062004B0BDE8F08746F2B2
:101670003A630C689C4254D10021084611F00CFBDF
:101680004F490190FFF7D5FF4E490198FFF7D1FF71
:101690004D4E019F35789DB94C4A01A9012011F0AA
:1016A000F7F9019803AA02A911F00CFB029E434F1F
:1016B0000336DFF83481B608AE4210D14449CFE793
:1016C000304697F0DFFAC11E0446304613F01EFA8A
:1016D00001340146384611F0FCF82644DAE7A94601
:1016E000039B53F8290013F07DFD014638460AF0AC
:1016F000C3FF029BB14499450DD2C0F112000028EE
:1017000007DD0446414638460AF0B6FF013CF9D1F0
:10171000E6E71230F3E738462E490AF0ADFF01350F
:10172000CAE720460DF098FA05462B4923480AF0EF
:10173000A3FF002120460DF0C1FAEA8827491F487F
:101740000BF048FB264B9D422AD164680025DFF848
:101750009C801A4EDFF89890043463689D4282D2D0
:10176000A36853F8357003EBC502BFB1042F15D041
:1017700041463046D2F804A00AF07EFF00213846E8
:101780000DF09CFA494630460AF076FF002150469B
:101790000DF094FA30460F490AF06EFF0135DCE790
:1017A000104B9D4218BF2C46E37C002B3FF45BAFEF
:1017B00004EB83042469C9E71C660B103CA90A10DA
:1017C00004BA0A1070B90A10A8880B1074B10A1074
:1017D00052910910F4660A10769109107E91091051
:1017E00090BA0A10D8C30A1055660A1054660A1037
:1017F0008E910910022281680248C900114309F044
:10180000C5B800BF302900202DE9F04F85B004464F
:1018100000AF18460E46BA21984615460FF07EF8DE
:101820000022814642F6522108F1040009F0AEF888
:1018300007F10C018046484613F03CFDFB68014669
:101840000344B8F1000F00D0013C4CB999420AD1D1
:101850001C491D4818F0CCFA13F8012D2E2AF3D09C
:101860009942F9D3F2E7D5F800905A1A02EB09042D
:1018700004F1080323F00703ADEB030D6B46184694
:101880007A604FEAD30BE84697F048F904F1010A71
:101890007A68B9F1000F09D02E23501C02F83B30B2
:1018A00031684A46404497F039F95446214640464B
:1018B00017F01EFD17F0F8FD143730602C60BD46A0
:1018C000BDE8F08F93910910A4B30A1010B51BF076
:1018D00032FA08220849044697F032F8024630B935
:1018E000014604F10800BDE8104007F03BBE204669
:1018F000BDE8104023F068BCA791091010B504465C
:10190000FFF7E4FF02280CD061686D2220460239FF
:101910001BF070FA2046FFF7D9FF831E584258414A
:10192000400010BD10B50446FFF7D0FF012808D0D5
:10193000204604491BF051FA2046BDE81040FFF74D
:10194000DDBF10BD616E0A1030B5D20085B00D4606
:1019500042F0020240F24751044618F0EFFC4FF00B
:10196000504319680C4B626853F821306846196976
:101970000291D9680391C3E9032208490DF0E8F800
:1019800000222146284603F085FF18F045FB012080
:101990000DF0ECF805B030BD3C240020059B011093
:1019A000F0B5044685B008460E461BF0C4F908227F
:1019B0002249054696F0C4FFD0B905F108076A46EA
:1019C000384601A907F0CEFD019B022B10D1009DE6
:1019D00004F1080395E8030083E80300384617F094
:1019E00043FD02462046A968FFF7AEFF05B0F0BDF3
:1019F000284617F039FD736807461D4415F8033C67
:101A00006D2B07D102A9029417F0EAFBDDE9020170
:101A10003A46E9E708F02CFF0546026840F24751D4
:101A2000D200204642F0020218F088FC63680121CF
:101A30001A46284618F0F6FAD8E700BFA791091011
:101A40002DE9F04F0646032E0D460868B1B009D9BE
:101A5000042ED1F80CA022D00C69641005D500200A
:101A600018F0E8FF00244FF0060A03A913F022FC47
:101A70000490E4B14FF050431A687A4B012E53F8AA
:101A800022301B690ED96A68062A0BD0930703D14E
:101A90001168754B994204D0002019F07BF900249D
:101AA000E3E71346204603AA04A9FFF7ADFE039B14
:101AB000002BD4D0002601253446B046DFF8C0B153
:101AC000039BAB4207D2BAF1060F0CBF404620463B
:101AD00031B0BDE8F08FDDF8109003D019F8053073
:101AE0002E2B22D12946484617F002FCA91B074697
:101AF00009EB060017F0FCFB06AA064605A9DBF871
:101B0000BC000DF02FFA059B8BB1F900002257485D
:101B100041F0020108F03AFF48B1D0F80490B8F162
:101B2000000F08BFC8464C466E1C0135C8E780212F
:101B300010AA0CA81BF0A7F8002C3DD12146304676
:101B400011F070FA81460028E9D1DBF8BC0008AA40
:101B500007A90DF007FAA146079B99450BD3012170
:101B6000304611F05FFA81460028D8D13A46404904
:101B7000404818F046F900230D93089B09A953F833
:101B8000290013F097FB099A014632B10CA81BF00B
:101B90003BF82F210CA81BF0E4F8304617F084FC2A
:101BA00001460CA81BF019F90CA8FFF7BBFE034671
:101BB00010BB09F10109CFE7204640F24A5109AABA
:101BC00018F0B2F809980028D0D013F00BFB0146AA
:101BD0000CA81BF002F92F210CA81BF0C2F830460C
:101BE00017F062FC01460CA81BF0F7F80CA8FFF7F1
:101BF00099FE03460028B9D03846019311F0F0F958
:101C00001D49814609A80B970CF0A2FF019B012BEF
:101C100022D1DDE90D1012F079FF40F24A5102465F
:101C2000484618F08BFB15490CA80D9F1BF0D5F802
:101C30000CA8FFF763FE022803D148460CA9FFF762
:101C4000AFFE0D9724B14A463146204618F076FB88
:101C500000200CF08BFF62E748460CA9FFF7A0FEBE
:101C6000F0E700BF3C2400200CB10A10302900200E
:101C7000B0910910A4B30A10F5170010F66C0A1001
:101C8000DC280020036A1B8B012B1EBFC3685B1876
:101C9000C360704710B50446836A406A9B6F9847DB
:101CA000238B226A0133918C9BB29942238338BFE4
:101CB000938410BD10B50446038B013B0383836AF4
:101CC000406AD3F8843098472046BDE8104001218F
:101CD000FFF7D8BF2DE9F04F85B004460D46984672
:101CE00003921BB1CB8A43F00803CB82039BEB83A7
:101CF000236ADA8A42F03002DA821B78002B46D15E
:101D0000A36A2946D3F8B4604346B446039A606A8E
:101D100005B0BDE8F04F6047DB6A03EBC60B13F874
:101D20003630053B012B1DD84FF0000917E0EB6A58
:101D300003EBC90213F83930062B0ED1DBF804107F
:101D40005368994209D1A36ABBF802201B69606AF3
:101D50001F460023B8470AF1010A09F101092B8D3A
:101D60004B45E4DC0136236A1A8DB242D4DCD4E957
:101D70000903BAF1000FC3D0CDF80080D3F8B84002
:101D800052462946039BA04705B0BDE8F08F0026C8
:101D9000B246E8E710B50446836A0021D3F88830DC
:101DA000406A9847A36A606A0F211B6B9847A36A31
:101DB000606A0121D3F8CC3098472046BDE8104036
:101DC0000321FFF75FBF38B50446836A00225B6CCE
:101DD000406A9847A36A606AD3F8C05000231A4645
:101DE0001946A8472046BDE83840FFF7D3BF836AAD
:101DF000896800221B6D406A09091847836A89684F
:101E0000DB6B406A184710B50446084611461A466F
:101E100019F052F9236A436000238360E3690BB928
:101E2000E06110BD1A469B68002BFBD19060F8E77B
:101E30002DE9F04F87B005460C4600AF11B90121DE
:101E4000116013E011F0030619D10B79682B06D14C
:101E5000CB681B0913608C68002CF0D0012604F0BD
:101E60000F03022B0DD12109002EE9D0AB6A00220D
:101E7000DB6A686A98471C37BD46BDE8F08F0026CC
:101E8000EDE716B9A3681B091360A14659F8043F92
:101E9000C8464FEA132A09EB8A030AF1FF3BBB60ED
:101EA00058F8040F000917F0F4FABB68834498450A
:101EB000F6D10BF1070323F00703ADEB030DE84662
:101EC0000023C7F80CD059F8040F07F114010009DA
:101ED0003B6017F0F5FA7A69014640467A6096F061
:101EE0001DFE3B687A6801339A45904418D15946E3
:101EF000F86817F0FDF9AB6A01460022DB6A686AF0
:101F00009847002EB7D00834BB689C42B3D054F831
:101F1000041FAB6A00221B6D686A09099847F3E742
:101F20004FF02E0208F8012BCDE731B1826801F0A5
:101F30000303134304BF0B68836070472DE9F0412E
:101F400007461E4659B111F0030510D14B68D8B2AF
:101F500090420CD14FEA13280C1D454501DBBDE82A
:101F6000F081384654F8041FB0470135F5E738468C
:101F70003346BDE8F0411847F8B50E4611461A46FB
:101F80000023044685780769837003610E4BFFF7D1
:101F9000D5FF6368BBB9618A51B1228A42B9A36A8D
:101FA000606AD3F8A0309847A36A606A1B6C9847B0
:101FB00031462046238A628AFFF78CFE003D18BF17
:101FC00001252761A570F8BD4128001070B5437840
:101FD0000546012B0C4606D1036A0A461B8B0221DB
:101FE000FFF711FF20612846A26821694C23BDE854
:101FF0007040FFF7C1BF70B5134642780546012A0D
:102000000C4604D10A460721FFF7FDFEA061A66930
:10201000284646233146E268FFF7AEFFB08A70BD1E
:102020009D22024B8968FFF789BF00BF492D001030
:102030006B22024B8968FFF781BF00BFDD480010AB
:1020400038B543680D46044611464BB905480EF0B5
:1020500069FF294660602046BDE83840FFF765BF4C
:1020600038BD00BF60B20A10014AFFF7E9BF00BFE8
:10207000C09109100B7970B5092B4FF6FF730CBF97
:10208000858AC58A04469D4202D1064AFFF7D8FFD9
:10209000218B628BA36A606A8A1A5B6F2946BDE84E
:1020A00070401847CD91091038B5054679B101F057
:1020B0000F03022B0DD10C0920460CF001FD002866
:1020C00006DA2246054906480EF0C2FF6860002085
:1020D00038BD044AFFF7B4FFF9E700BFE6910910E5
:1020E000F4B10A10EB91091070B5144605460E467E
:1020F000127883B132B1032A04D0104ABDE870408F
:10210000FFF79EBF032626706168286A19F033F82E
:1021100000B1067070BD62B9012323702146006AC8
:1021200019F030F82378012BF4D131462846044ABF
:10213000E4E7062AEED0034AE0E700BFF291091077
:10214000FF9109100C9209102DE9F34143780446E0
:10215000012B0D461AD10B79102B0CBF4FF0010843
:102160004FF0000808D0036A1B782BB9114A02B05F
:10217000BDE8F041FFF764BF6D2101AA05F1080039
:1021800016F07AF900260746B74202D102B0BDE840
:10219000F081019B002253F82610206A090918F0EB
:1021A000C9FF4346024629462046FFF79DFF0136F8
:1021B000EAE700BF1392091010B4026A044640789F
:1021C0000B46012804D110465DF8044B03F00DBB0B
:1021D000A16A606A20315DF8044B03F015BB10B4AE
:1021E000044662780B46012A006A03D15DF8044B6D
:1021F00018F0A0BFA16A02461031606A5DF8044B76
:1022000003F002BB70B505460C4600292ED0CA0764
:1022100006D5836A49105B6B686ABDE87040184751
:102220008B0717D004F00F04022C4FEA11110AD0CB
:10223000062C0CD0052919D0BDE87040836AC9B2BC
:102240001B6B406A1847BDE87040FFF7C8BF836A40
:102250009B6BE1E7836A0968DB68406A98472279EB
:10226000034B2146284653F82230D6E770BD00BF05
:1022700058980A102DE9F74F05460C4616461F469A
:10228000204615F0C9FE40B16EB93946AB6A9B6E67
:10229000686A03B0BDE8F04F1847204615F0BFFE4E
:1022A00020B1002EF1D103B0BDE8F08F002C48D052
:1022B000A30746D163684FEA132BDBB21E2B18D15C
:1022C000DEB1043404EB8B0B5C45ECD03B4632466C
:1022D000284654F8041FFFF7CDFFF5E7434628468C
:1022E0005AF8041F019209F10109FFF7C3FF019A8F
:1022F00011E01F2B1FD1002EE3D04FF00009D5F8BD
:102300000C8004F1040A08F10103EB600BF1FF33C8
:10231000009386F00102009B4B45DFDC0BF10101CD
:102320003B4654F8211032462846FFF7A3FFAB6A1C
:1023300041469B6AACE7202B03D1A46886F00106D6
:102340009EE721462846FFF75DFF3A463146AB6AD5
:10235000686ADB6E03B0BDE8F04F184738B5026A13
:10236000044612780B46072A06D0022A04D0BDE89C
:102370003840144AFFF764BE9D6885B9A36A0F21EF
:102380001B6B606A9847A36A606A0021D3F8CC305F
:1023900098472046BDE838400121FFF773BCAB07E2
:1023A0000BD12B79AF2B08D12046A968FFF72AFF64
:1023B0002046BDE83840FFF7EDBC29462046FFF730
:1023C00021FFE0E72592091070B543780446012B00
:1023D0001546CE6806D1036A0A461B8B2946FFF7CD
:1023E00012FD7061002320461A467169FFF772FCE6
:1023F0002046F168FFF706FF062D05D1A36A0021EC
:10240000D3F88830606A9847A36A606AD3F8BC50F2
:102410000023AC46BDE870401A460121604738B53C
:1024200005460C46C968FFF7EDFE2846A168BDE8E1
:102430003840FFF7E7BE0B7970B5342B04460D46E4
:1024400010D18968FFF7DEFEED68AD6885B9A36A33
:102450000F211B6B606A9847A36A04220221D3F8FC
:10246000A0301AE0836A0F211B6B406A9847ECE7A3
:10247000AB071FD12B799A2B13D1A36A0F211B6BAA
:10248000606A9847A9680029E6D02046FFF7BAFE9F
:1024900004220321A36AD3F8A030606ABDE870402B
:1024A00018479B2B06D1A9682046FFF7ABFEEB68C7
:1024B0009968E8E729462046FFF7A4FECCE710B567
:1024C00004468968FFF79EFEA36A606A0021BDE8A2
:1024D0001040DB6C184700002DE9F7438D68044677
:1024E00016465DB9002A75D002222946836AD3F8C0
:1024F000A030606A03B0BDE8F043184715F0030749
:1025000040F08A802B79372B13D132B1836A0222B3
:102510000121D3F8A030406A984720462946FFF7AA
:1025200071FEA36A606AD3F8A43003B0BDE8F0433B
:1025300018479F2B70D1EB681A79A12A5AD1A22192
:1025400001AA03F1080015F097FFA968804621B39E
:102550008B0722D10B79372B1FD136B1A36A411CCF
:102560000222D3F8A030606A98472046A968FFF796
:1025700049FEA36A606AD3F8A43098474FF0010976
:10258000474510D1B9F1000F24D1A36A0322D3F833
:10259000A030606A791C98471CE02046FFF732FEA5
:1025A0004FF00009ECE7019B53F82710A9B18E0703
:1025B00013D10E79A6F13700464246412046FFF777
:1025C00021FEB9F1000F11D04EB9184A2946204614
:1025D000FFF736FD03B0BDE8F0830026EEE7A36AFF
:1025E000606AD3F8A43098470137C9E7002EFBD0C2
:1025F0000F4AEBE7AB685BB19A0709D11B79372B20
:1026000006D10422294603B0BDE8F043FFF7DCBE43
:10261000052229462046F6E729462046FFF7F2FD27
:10262000A36A03220121D3F8A03062E73092091097
:102630003E9209100122FFF74FBF70B50D460446C8
:10264000C968FFF7DFFDA968A36AC1F30711332941
:1026500018BF3F39606A08BF0221BDE87040D3F857
:10266000983018BFC9B21847F8B54F680C4689684A
:1026700005460026FFF7C6FD3F0A0C340236B74276
:1026800004F1080400DCF8BD284654F8041CFFF7E8
:10269000B9FD54F8081CAB6A09092439D3F89C30F9
:1026A000686AC9B29847E9E72DE9F0410C464E68DF
:1026B00054F8081F05460127FFF7A4FDA6F10D08F1
:1026C0005FFA88F8360AB74201DBBDE8F081284698
:1026D00054F8041FFFF796FDAB6A4146D3F89C30CF
:1026E000686A98470137EEE72DE9F04104464E68E5
:1026F0000D46360A8968FFF785FD032E98BF4FF017
:1027000000084FF0010782BFD4F80C8008F10103E4
:10271000E3607B1C9E4222DC032E55D9E568606A8B
:102720006B1CE360A36A29469B6E9847A36A4146E7
:10273000606A9B6A9847A36A0121606A9B68984710
:10274000A36A606A1B6E9847A36A606ADB6D98474C
:10275000A36A2946606A9B6ABDE8F0411847204693
:1027600029690237FFF74EFDB74207DAA36A606AAC
:102770005B6D9847A36A606A5B6E9847EB68A26AD4
:1027800003F00F010A29D2F89C20606A11D1C3F32B
:102790000713252B0EBF0621343BD9B29047B74211
:1027A00005DAA36A424600211B6F606A9847083524
:1027B000AFE71979852901D13221EFE79B680BB981
:1027C0000721EBE73321E9E7BDE8F08110B50446C6
:1027D0008968FFF717FDA36A606A0321BDE810400E
:1027E000D3F8983018472DE9F0470D4604460027E6
:1027F00055F8046FD0F80C805FFA86F9A9F11E0332
:10280000D3F1000949EB030908F10103C360360A5B
:10281000B74206DBA36A4146606A9B6ABDE8F0479F
:102820001847204655F8041F0137FFF7EBFCB74265
:10283000F0DAA36A424649461B6F606A9847E7E7A9
:1028400001F00F03022B70B5044612D00B79492B0F
:1028500009D0483B082B18D8DFE803F00817071702
:102860001717170507000123A37070BD8E680D6947
:1028700075B9A378002BF8D1638A002BF5D02046D8
:10288000BDE870401C4AFFF7DBBBD1E90265EFE70A
:10289000A3783BB3238A01339BB2012B23820ED151
:1028A000D4E90903618AD1B10022D3F8A030984756
:1028B000A36A02220021D3F8A030606A9847294613
:1028C0002046FFF79FFCA36A606A9B6B310998471B
:1028D000A36A606AD3F8A430BDE8704018471B6C47
:1028E0009847E5E7638A2946013320466382BDE8BD
:1028F0007040FFF787BC00BF499209102DE9F041F5
:1029000004460E46C568D1F80C80AB1C0022D8F8EE
:102910000810C3602B46FFF7ADFC2046B168FFF7F7
:1029200071FCA36A6F1C3946606A9B6E9847A36A64
:102930002946606A9B6A9847A36A606A9B684FF061
:10294000FF3198472046D8F80C10FFF75BFCA36ACC
:102950003946606A9B6ABDE8F04118472DE9F047A7
:10296000C668D0F814A0B31CC360038B06F101083D
:10297000B0F81A9004468682A0F8168043838868CF
:102980000D4615F049FBF8B9E768A8687B1CE360C1
:1029900015F045FB20B9A36A41469B6E606A9847D3
:1029A000A36A39469B6A606A98472046E968FFF740
:1029B00029FCA36A41469B6A606A98473B4601220C
:1029C0002046A968FFF756FC20462969C4F814A0E0
:1029D000A4F81A90FFF716FCA36A3146606A9B6A56
:1029E000BDE8F04718472DE9F347C6680446731C55
:1029F000C36088680D4615F00FFB0246E8B9E7682A
:102A000020467B1CA968E3603B46FFF733FC204669
:102A1000E968FFF7F7FBA86815F001FBD8B92B6947
:102A20000BB96B6923B1A36A31469B6E606A984704
:102A3000A36A39469B6A606A9847712101AA05F129
:102A4000100015F019FD002781464F450BD1204697
:102A50006969FFF7D7FBA36A31469B6A606A9847AA
:102A600002B0BDE8F087019B53F82780D8F8080032
:102A700015F0D2FA0246F8B9D4F80CA020460AF1B3
:102A80000103D8F80810E3605346FFF7F3FB204634
:102A9000D8F80C10FFF7B6FBD8F8080015F0BFFA0D
:102AA0000028D8D1A36A31469B6E606A9847A36A12
:102AB00051469B6A606A98470137C6E7184B2DE973
:102AC000F041D3F84C7204460D463FBBC668012264
:102AD000731CC36089683346FFF7CCFBA36A1F21D0
:102AE00001225B69606A9847E96851B12046FFF7A7
:102AF00089FBA36A3A46D3F8BC5001213B46606A81
:102B0000A847A36A606A0121D3F8C8309847A36A2E
:102B10003146606A9B6ABDE8F0411847BDE8F08124
:102B2000DC28002070B58D6804463DB92946836ACB
:102B3000D3F8C830606ABDE870401847AB070ED1C3
:102B40002B795E2B0BD1A968FFF75CFBE968204667
:102B5000FFF758FBA36A0221D3F8C830EAE72946F9
:102B60002046FFF74FFBA36A0121D3F8C830E1E705
:102B700010B504468968FFF745FBA36A606ADB6D00
:102B8000BDE81040184700002DE9F041026A0446F4
:102B90001278072A04D0BDE8F0411A4AFFF750BA6C
:102BA0008D685DB9836A0F211B6B406A9847A36AE1
:102BB000606AD3F8C430BDE8F041184715F003024D
:102BC0001DD12B791B2B1AD1C668EF68731CC3600B
:102BD000B9683346FFF74EFBA9682046FFF712FBA2
:102BE000A36A606AD3F8C4309847A36A31469B6AE7
:102BF000606A9847F9682046FFF704FBD7E7294643
:102C0000F9E700BF679209102DE9F0410C4605462F
:102C100054F8046F360A04EB8607BC4208D1AB6A4D
:102C20003146686A0022BDE8F041D3F8A030184769
:102C3000284654F8041FFFF7E5FAEEE789680346D3
:102C400010B441B9826A406AD2F8A0400A462346CD
:102C50005DF8044B18474A68120A022A0BD1CA6869
:102C60004AB1940707D11279AC2A04D106225DF843
:102C7000044BFFF7A9BB18465DF8044BFFF7C4BF30
:102C80002DE9F0410E4605460F46002456F8043F54
:102C90004FEA1328444501DBBDE8F081284656F889
:102CA000041FFFF7AFFA6B683BB10234284657F8B0
:102CB0002410BDE8F041FFF738B90134EAE710B558
:102CC0000446FFF7DDFFA36A606A2221BDE81040D9
:102CD000D3F89C30184770B58D68044645B9012279
:102CE0002946836AD3F8A030606ABDE8704018476F
:102CF000A9071ED16B68DAB2922A1AD11B0A022BDD
:102D00000CD1EB6853B19A0708D11B79AC2B05D1D4
:102D10002946BDE870400322FFF756BB29462046EE
:102D2000FFF7AEFF6968A36A0122D3F8A030090A51
:102D3000DAE729462046FFF765FA0122A36A114621
:102D4000D3F8A030D0E7000001F00F03022B2DE9EB
:102D5000F04705460C4604D1BDE8F0470909FFF7E6
:102D60002BBA002955D011F0030652D10B792C2B28
:102D700038D18968FFF746FAE668002E49D016F088
:102D8000030846D177683346FAB28E2A09D13F0A42
:102D900006F1040907F1FF3AC24510DC013756F885
:102DA00027301A79312A12D128469968FFF72AFA72
:102DB000AB6A686A0221BDE8F047DB6C1847284619
:102DC00059F8041FFFF71EFA08F10108E4E7322A58
:102DD0001FD19968AB6A686A0222BDE8F0471B6D93
:102DE000090918472D2B14D18C6894B163681B0A0C
:102DF000022B06D0271D6368B6EB132F10D3BDE856
:102E0000F087E368002BF5D09A07F3D11B79AC2B40
:102E1000F0D121462846BDE8F047054AFFF710B932
:102E2000284657F8041FFFF78FFF0136E3E700BF7E
:102E3000739209102DE9F8430446006A1746C68AC2
:102E40000D46B20706D5374A29462046BDE8F84365
:102E5000FFF7F6B801F00F02022A18D1A37809098A
:102E60008BB1838B013383834FF000094FF001084E
:102E7000002955D0002218F05DF903780646002B92
:102E800038D0294AE0E7438B01334383ECE70A79E2
:102E90008946BA420BD18968A37809091BB1838B93
:102EA00001338383E2E7438B01334383DEE79A42B6
:102EB00018D1A378002BC6D10122A270896879B3FA
:102EC00001F00F02022A1CBF8946D9F8081046F00B
:102ED000040608BF99464FF00308C6820CBF0909D3
:102EE0000909C5E7896846F002064FF00508090997
:102EF000C682BDE7042380F801800370236A1B8B20
:102F0000032B0DD1482F0BD1B9F1000F08D020466B
:102F1000D9F80C10FFF7C8F8737843EA0013737000
:102F2000BDE8F8837D920910819209104923482257
:102F3000FFF780BF4F234E22FFF77CBF2DE9F04FF4
:102F40000E46016200214270C16033780446072BAF
:102F500015468DB005D08B4A0DB0BDE8F04FFFF798
:102F60006FB8012A05D0036B021D29461B68C06A91
:102F700098476378D6F80C80032B10D146210BAA12
:102F800008F10C0015F078FA236B01469B680B9A48
:102F9000E06A984763687083002B40F0BC80D8F8E3
:102FA0001010C1B101F00F03022B10D10B09752BCA
:102FB0003FD006D83E2B3ED05E2B0CD02046724A26
:102FC000CAE741F2B4129342F8D1032304E0204649
:102FD0006E4AFFF735F802230493D8F8143019210C
:102FE00009AA08A8089315F047FA4FF000090690BF
:102FF000069B994521D16378012B16D9236B04993F
:103000005B68E06A98476378042B0ED1049B206AC2
:10301000E26A0393438B052102930023CDE9003339
:103020000069D2E9023202F024FC6368002B72D1FD
:1030300014E00023D0E70123CEE7099B4FEA890B78
:1030400053F829100B79082B02D109F10109CFE7B8
:10305000052B06D04E4A2046FEF7F2FF0DB0BDE824
:10306000F08F8B68002BF5D09A07F3D1CA68002A3D
:10307000F0D11A792C2AEDD19E6806F00F02022AAF
:10308000E8D1D3F80CA0BAF1000FE3D01AF0030F87
:10309000E0D19AF80430302BDCD1A4210AAA0AF13D
:1030A000080015F0E9F940F6363336099E42074626
:1030B0001BD1012805D10A9A136803F00F03022BD4
:1030C00004D0344A099B53F80B10C4E7E168012D82
:1030D00001F10103E3601AD01268236BE06ADB6838
:1030E0001209984798B92C4AECE740F295539E4252
:1030F00015D1012803D10A9B1968CB0701D4274AAF
:10310000E0E7012D03D0E06A4910FDF7B4F96368E8
:10311000002B9AD0D046D8F80030A3609EE740F24A
:10312000FB639E4223D1012804D90A9B1A6812F03E
:10313000010601D11A4AC5E7012DE8D053100793C3
:103140000A9A0BA952F8260014F052FF08B9154A42
:10315000B8E7E36A0B9805930FF09FF90136024632
:1031600007990598FDF78EF9B742E9D1CFE7012D10
:10317000CDD0236B0246D3F810B031460A9BE06AEB
:10318000D847C4E78B920910989209109C920910B5
:10319000A4920910AA920910B6920910BA920910C5
:1031A000C6920910D892091010B4026A04464078F9
:1031B0000B46012804D110465DF8044B02F015BB04
:1031C000A16A606A18315DF8044B02F01DBB000073
:1031D0002DE9F14F8F0704460D46164613D001F036
:1031E0000F03022B18D102F0FD06012E4FEA111138
:1031F00004D001B0BDE8F04FFFF7D6BF01B0BDE885
:10320000F04FFEF7ECBF4968CBB22D2B7BD00BD82B
:10321000062B0DD02C2B12D0294620464D4A01B04A
:10322000BDE8F04FFEF70CBF2E2B7FD09D2BF3D1C6
:10323000002EF1D105F10802090A20467BE0022A9E
:1032400002D0A968FEF7DEFFEF68002FE4D017F088
:103250000309E1D17B68B846DAB28E2A0DD1022E7D
:103260004FEA132805D007F1040A08F1FF3BD945BE
:1032700011DB08F1010857F8288098F80430312B49
:1032800024D1022E0FD1A36A606A5B6E9847A36AAD
:103290000121DB6C15E020465AF8041FFEF7B2FF4F
:1032A00009F10109E3E72046D8F80810FEF7AAFF64
:1032B000012EA36AECD19B6D606A98470021A36A36
:1032C000DB6C606A01B0BDE8F04F1847322BA3D128
:1032D000D4E90903012E0CD15B6D98470022A36A43
:1032E000D8F808101B6D606A090901B0BDE8F04FFD
:1032F0001847022E01D11B6E9847A36A0122D8F805
:1033000008101B6DEFE7AA68002A85D0002E83D134
:103310005168090A022907D1D3682BB1980703D154
:103320001B79AC2B3FF478AF083286E7002A7FF494
:1033300073AFA96821B901B0BDE8F04F00F074B8CF
:103340008E0703D10B790A46922BE1D0012105F1BA
:10335000080272E7E39209102DE9F04704460D4692
:10336000C7681E46BB1CC360836A39469B6A406AB5
:1033700090469847A36A07F101094946D3F88C3073
:10338000606A9847A96800222046FFF721FF2D694F
:10339000002D2DD141462046FEF734FF236A1978CF
:1033A000A36A06291DD1D3F8CC302946606A984714
:1033B00020460121FEF766FCA36A606ADB6D984730
:1033C000A36A3946606A9B6E9847A36A606A494659
:1033D0009B6A9847A36A606AD3F89030BDE8F047CB
:1033E0001847B200D3F8A830606A05329847E7E77B
:1033F0002B79AD2B07D1A9683B4600222046FEF76A
:1034000039FFED68C4E72046E968FEF7FBFEA36AD2
:10341000606A0121D3F88830984742462946204601
:10342000731CFFF799FFCBE72DE9F84304460D46DF
:10343000904600264FF0FF3701F1FF39B9F1FF3F09
:103440000CD17B1C05D1A36A2946D3F8AC30606A45
:1034500098470026AE421DD1BDE8F88358F82610E3
:1034600071B18A070CD10B79222B09D101370BD10D
:10347000A36A4A463146D3F8B030606A9847374667
:10348000013609F1FF39D9E72046BDE8F843074A7C
:10349000FEF7D6BD58F82610B7424FF0000220467E
:1034A00008BF8968FFF794FE0136D3E7EE92091052
:1034B0002DE9F0470446904699460F4621B9BDE8EC
:1034C000F0471946FEF79EBEC668731CC3601568B8
:1034D00035B315F0030A23D12B797B2B20D1A968B2
:1034E000FEF790FE524631462046FEF7D3FB524689
:1034F0002046E968FFF76CFE4B46204608F10402BF
:10350000791EFFF7D5FFA36A3146606ADB6F9847E3
:1035100020460321FEF7B6FBBDE8F047FEF7CABB25
:1035200029462046FEF76EFE204600223146FEF771
:10353000B1FBA36A606ADB6D9847DDE737B50C46DF
:10354000054601AA7A2104F1080014F095FFE3680A
:103550000146019A2846FFF7ABFF03B030BD2DE9C5
:10356000F04FD1E9022302F00F02022A04460D4671
:1035700089B040F0FF80002B00F0FC80980740F0FD
:10358000F9801A792C2A40F0F5809A6802F00F0130
:10359000022940F0EF8012097C2A40F0EB80DB68C2
:1035A0001A79302A40F0E6809B68A42107AA06A871
:1035B000069314F061FF431E022B00F2DB80079B91
:1035C00001281A6800F0C880022800F0C3809E68B5
:1035D000F10740F1CF80710800F0CC80D3F804905F
:1035E00032B1930704D11179A639022940F2C28081
:1035F000B9F1000F08D019F0030F05D199F80410A4
:10360000A639022940F2B680AB686F6901932B6935
:10361000218B02936369E5680493638B05F1010BC9
:1036200003936183AB1C291D19F001080593A58242
:10363000A4F816B005F1030AE16005D14946204619
:103640000592FEF7DFFD059A11462046FEF7DAFDEA
:10365000A26A5146926E606A9047A26AA91C926A59
:10366000606A9047A26A606A526D904700222046C5
:103670000199FFF7ADFD20460299FEF7C3FDA26A4E
:103680005946926A606A904731462046FEF7BAFD75
:10369000A26A0E21D2F89C20606A9047A26A514625
:1036A000926A606A9047A26AB8F1000F58D1936D90
:1036B000606A9847A36A606A1B6E9847A36A002EE7
:1036C000ACBF00210121D3F89C30606A9847A36AFF
:1036D0000121DB6E606AAA1C9847049B6361039B0F
:1036E0006383002F44D0A36A606ADB6D9847B8F10A
:1036F000000F03D1A36A606ADB6D98473946204604
:10370000FEF780FDE668606A731CE360A36A3146D9
:103710009B6E9847A36A88F001019B68606A01313B
:103720009847A36A606A9B6A29469847A36A606AB9
:10373000DB6D9847B8F1000F03D1A36A606ADB6DB7
:10374000984727B1A36A31469B6A606A984709B0D7
:10375000BDE8F08F032641E791460326024647E77E
:10376000606A526D904749462046FEF74BFDA5E73B
:103770003E46D6E7E668238BB4F81A9063836FEA77
:1037800046436FEA5343D4F814A0771CA382F31C7A
:103790002046E968E360E782FEF734FDA36A606AC9
:1037A0000121D3F888309847A36A3946606A9B6A3A
:1037B0009847A36A06F10208D3F88C304146606A44
:1037C000984700222046A968FFF702FD2046296994
:1037D000FEF718FDA36A3946606A9B6E9847A36A94
:1037E0004146606A9B6A9847A36A606AD3F8903042
:1037F000984720466969C4F814A0A4F81A90FEF707
:1038000001FD3146A36A606A9B6A09B0BDE8F04FCA
:1038100018472DE9F74F0446174698460E4629B932
:10382000194603B0BDE8F04FFEF7ECBCC5682B1D90
:10383000C360136805F1010A05F1020B05F10309E4
:10384000002B00F0D28013F0030240F0CE801979F3
:103850007B2940F0CA80996801920093FEF7D2FC60
:10386000A16A606A496D884740F23A512046FEF7E6
:10387000AAFADDE900322046D968FFF7A9FC022246
:1038800029462046FEF706FAA36A606A03219B6870
:1038900098473A1D43462046711EFFF7BAFFA36AB8
:1038A000606A6FF002019B689847A36A2A465146F6
:1038B000D3F88060606A5B46B047A36A606A5B6D5C
:1038C0009847A36A606A5B6E9847A36A606A1B6E3A
:1038D0009847A36A002240F23B51606A5B6C9847AC
:1038E000A36A606A5B6E9847A36A606A5B6E9847DA
:1038F000A36A606A5B6D9847A36A00220A21606A26
:103900001B6D9847A36A606A1B6E9847A36A606A3A
:103910000F211B6B9847A36A0321D3F8C0500023E3
:10392000606A1A46A8472046FEF734FAA36A4A4658
:103930000021606ADB6E9847A36A606ADB6D984776
:10394000A36A606A0F211B6B9847A36A4946606AA5
:103950009B6E9847A36A606A02219B689847A36A96
:103960005946606A9B6A9847A36A606A5B6E98478B
:10397000A36A606A5B6E9847A36A5146606A9B6A55
:103980009847A36A0022606A40F23B515B6C9847FB
:10399000A36A0F21606A1B6B9847A36A606A5B6D1C
:1039A0009847A36A606A5B6D9847A36A0321D3F8BE
:1039B000C0500023606A1A46A8472046FEF7EAF97D
:1039C000A36A606ADB6D9847A36A606A4FF0FF31B3
:1039D0009B689847A36A606A49469B6A9847204655
:1039E00003B0BDE8F04FFEF765B919462046FEF773
:1039F00009FCA36A606A5B6D9847204640F23A5121
:103A0000FEF7E1F9A36A606ADB6D984737E72DE9B5
:103A1000F041CD6804460E4665BB0378C3B1036A26
:103A20001D78ADB940F24B51FEF7D9FBB168204685
:103A3000FEF7E8FBA36A2A46D3F8BC6001212B46B7
:103A4000606AB047A36A606ADB6DBDE8F041184761
:103A5000B1688B0707D001F00F03022B08D1204675
:103A6000FEF7D0FBEEE70029F9D00B793A2BF6D11F
:103A7000BDE8F081AF0740F0AF806B68DAB25B2A37
:103A800011D1ED68002D4AD1006A0378072BEFD1E0
:103A9000896801F00F03022BEAD1BDE8F04104224E
:103AA000D14017F047BB562A13D101228968FFF78E
:103AB0008FFB2046E968FEF7A5FBA968A36A090900
:103AC0003E39D3F89C30606AC9B298470222B16887
:103AD0007DE0572A23D11B0A5F1E013355F82310BE
:103AE000FEF790FB002F03DDA36A606A5B6D9847C9
:103AF000B16800222046FFF76BFB00260435BE426A
:103B0000B6DA0136BE4203DAA36A606A5B6D984793
:103B10000022204655F8041FFFF75AFBEFE7A907DC
:103B20005AD16B68DAB2062A56D1B768002F53D043
:103B3000BA0751D17A68D1B206294DD11B0AB3EB2D
:103B4000122F4FEA122847D1A8F10203012B43D8C4
:103B5000BB6823B1980702D11B79222B3CD0FB68AC
:103B600023B1990702D11B79222B35D0B8F1020F6E
:103B700006D03B6923B19A0702D11B79222B2BD0A7
:103B80002046A968FEF73EFB2046E968FEF73AFBAF
:103B9000B8F1030F07D120462969FEF733FBA36A6A
:103BA000606A5B6E9847A36A606A1B6E9847002242
:103BB0002046B968FFF70CFB00222046F968FFF7A2
:103BC00007FBB8F1030F7FF453AF00223969204699
:103BD000BDE8F041FFF7FCBA29462046FEF712FB8C
:103BE000002274E70023032A2DE9F04104460D4624
:103BF000164642700162C36080F8342002D1C08E44
:103C000050BBA0634FF00008A36A31461B68606A8E
:103C10002A46A4F83680984706212046FEF732F857
:103C20006778EE68012F04BFA5F82280A5F82480EC
:103C3000B6B1B20714D133793F2B11D1B168FEF779
:103C4000E1FAA36A606AD3F8C4309847A36A606A4D
:103C50005B68BDE8F0411847800006F048FED0E7F9
:103C60002B78072B00F29380DFE803F004912541C5
:103C70004141410E31462046FEF7C4FAA36A0F21A6
:103C80001B6B606A9847DCE7012F12D10023A370F9
:103C90004622554B2046F168FEF750F92B8B032B3B
:103CA00007D120463169FEF7FFF9EB8A43EA80131A
:103CB000EB827169DFE7A36A3168DB68606A984765
:103CC0006378012B07D10023A3704C222046474B79
:103CD000B168FEF733F92046F168FEF793FAEB8AF4
:103CE000DB07AED5A36A606ADB6D9847C6E7012F94
:103CF000D6F80C8005D104223946206A17F01AFA4A
:103D00006F83A36A3168DB68606A98472B78032B5E
:103D100024D10122A36AD3F8A0300021606A984719
:103D20002B78062B28D1A36A606A1B6C9847012167
:103D30002046FEF754FAA36A606A1B6C9847A36A90
:103D4000606A1B6C9847002341462046B268FFF723
:103D500003FB2B78062B7FF474AF8FE7042B04D181
:103D6000A36A0222D3F8A030D7E7052BD8D1A36AE3
:103D70000322D3F8A030D0E720460121FEF72FFA26
:103D8000A36A0121D3F88830606A9847DBE7012FE6
:103D900004D104220A21284617F0CCF91721204625
:103DA000FEF71DFA16212046FFF7FEF9B168A36A57
:103DB000606A9B6B090998471A212046FFF7F4F9BE
:103DC00020463169FEF71EFA0A21284617F0A2F9AB
:103DD0000378042BA36A3FF452AF1D694288002385
:103DE0000A21606AA8472CE72D2F0010352F0010FC
:103DF000036A10B51A8B0446FEF7FDF8014620460B
:103E0000BDE81040FFF7D0B92DE9F04F8D680446AA
:103E10002B7985B0032B0AD12946FFF7E9FFAA6960
:103E2000D38A43F00103D38205B0BDE8F08F026A64
:103E3000D28AD20706D42946614A05B0BDE8F04FC0
:103E4000FEF7FEB8162B40F0AD80C668E968331D5A
:103E5000C360FEF7D7F9A36A606A002240F23C51C2
:103E60005B6C9847A36A606AD3F8C07000231A4657
:103E70001946B8476369E7680093638B07F1010847
:103E80000193BB1CE360238B41466383A36A606A92
:103E90009B6A06F1010BA782A4F8168098470122BD
:103EA00059462046FDF7F6FEA36A606A5B6D9847A7
:103EB000204640F23E51FDF786FF2046A9680022C9
:103EC000FFF786F9A36A06F1020900224946606AF3
:103ED000D3F894309847A36A5946606A9B6A98471A
:103EE000A36A606AD3F8D0309847A36A606A5B6DB2
:103EF0009847A36A0122606A40F297415B6998473C
:103F0000A36A606A0821D3F89C309847A36A06F137
:103F1000030A52460021606ADB6E9847A36A606A12
:103F2000DB6D9847A36A01223146606AD3F894306A
:103F30009847A36A5146606A9B6A9847A36A012121
:103F40009B68606A98472046FDF7B4FEA36A606AE2
:103F5000D3F8D4309847A36A49469B6A606A984769
:103F600020462969FEF74EF9A36A4146606A9B6EB6
:103F70009847009B31466361019B606A6383A36A33
:103F80009B6A984720466969FEF73CF9A36A606A14
:103F900039469B6A9847A36A606ADB6D05B0BDE845
:103FA000F04F184703AA7A2105F1080014F064FACB
:103FB000EB680146039A2046FFF72BFC34E700BF6D
:103FC000F59209102DE9F04F0F46044685B0C568FB
:103FD0001E460E9B294603936B1C0293AB1CC360C9
:103FE00093460122FDF756FE394600272046FEF78C
:103FF00009F9A36A0022D3F89430606A691C9847D3
:10400000A36A29469B6A606A9847A36A606AD3F8E4
:10401000D0309847D4F80C9009F10103E3605F4574
:1040200018DB2046FDF746FEA36A606AD3F8D43059
:104030009847A36A02999B6A606A98472046039949
:10404000FEF7E0F84946A36A606A9B6A05B0BDE8DE
:10405000F04F18473346D4F80CA01A680436019282
:104060000AF10102E260019A0137D2F80880B8F142
:10407000000F4FD1BB4542D10025A36A606ADB6DBA
:104080009847A846019B2046D968FEF7BBF825B3A0
:10409000A36A0F211B6B606A9847A36A41469B6A1B
:1040A000606A9847A36A01219B68606A9847A36A7F
:1040B0000F211B6B606A984729462046FFF774F86A
:1040C00029462046FEF778F8A36A606A4FF0FF3170
:1040D0009B6898472046FDF7EDFDA36A01224946FB
:1040E000606AD3F894309847A36A5146606A9B6A25
:1040F0009847A36A01219B68606A98478FE720462A
:104100001E4A1968FDF79CFF204605B0BDE8F04F38
:10411000FDF7D0BD18F003052DD198F804204346D3
:10412000762A03D1DD68D8F808802D09A36A606A71
:104130005B6D984741462046FEF764F8A36A082164
:10414000D3F89C30606A9847A36A52460021DB6E20
:10415000606A9847002D8FD029462046FFF724F843
:10416000D4F80C80022208F1010341462046E360A6
:10417000FDF790FD86E70025D8E700BF0C930910F6
:104180002DE9F3471646DDE90AA9C76898467B1C66
:104190000D4602223946C3600446FDF77BFD002E22
:1041A0002DD1A36A03219B68606A9847294620465F
:1041B000FEF728F8A36A6FF002019B68606A9847CF
:1041C000A36A606A0F211B6B9847A36A3946606A2D
:1041D0009B6A9847A36A606A9B6801219847494691
:1041E0002046FEF70FF8A36A606A4FF0FF319B6824
:1041F0009847204602B0BDE8F047FDF75BBD434657
:10420000324629462046CDF800A0FFF7DBFED7E76F
:104210007FB5CD6806462B790C46782B09D1AB6863
:10422000019300231A4600938968FFF7A9FF04B0A1
:1042300070BD742B4FF0770103AA16D105F1080069
:1042400014F01AF92B6902463BB9EB68009330462B
:10425000039BA168FFF7B6FEE9E79B683046019330
:10426000EB680093A168039BDFE704F10C0014F0F6
:1042700003F900230246E9E701F00F03022B70B5B2
:1042800004460D46164602D01E4AFDF7D9FE3146B9
:104290002046FDF7B7FFA36A606A5B6D98476378B5
:1042A0002E09012B0FD1226A1378033B032B0AD866
:1042B0005068314601F099FA0278032A09D1314653
:1042C000206A16F037FF31462046BDE87040FEF701
:1042D0006BBF00223146206A16F02CFF236A02468B
:1042E0005B685B68002B0CBF0123002304D00178BE
:1042F000012904BF0021017029462046FDF7F4FE84
:10430000E1E700BFE39209102DE9F04F002687B0E6
:10431000CDE902210446A42105AA03A81D4614F0F4
:10432000ABF8B1463746B0464FF0010B0190019B08
:104330009E4211D127B1A36A49465B6B606A9847D8
:10434000D4E90903029A002A76D0D3F8C0403B464C
:1043500042462946A04713E0059B53F826A0BAF130
:10436000000F5BD01AF0030F58D19AF80420A62A48
:104370001AD1B80707D5324A51462046FDF760FEEC
:1043800007B0BDE8F08F1D2E01D92E4AF4E70BFAD5
:1043900006F22046DAF8081049EA02090127FDF77B
:1043A00031FF01350136C2E7A72A0DD1A26A606A42
:1043B000126C9047DAF8081047F002072046FDF724
:1043C00021FF08F10108EDE7A82A27D1DAF80C202F
:1043D00072B191070CD11179AA2907D120469268B0
:1043E000DAF80810FFF748FF0135DBE7AC290FD0FA
:1043F000DAF8081001F00F02022A01D0124ABBE7D6
:10440000A26A0909926B606A9047DAF80C10D5E746
:10441000062251462046FDF7D7FFE5E7BB0701D549
:104420000A4AA9E7B8F1000F01D0094AA4E75146AA
:104430002046FDF7E7FED7E7D3F8BC4087E700BF8B
:10444000249309102B9309103393091040930910FA
:104450004793091070B50D4641780446012913466B
:1044600003D12A46FDF7CFFC6861A36A606A9B6CA2
:10447000984700236E691A4631462046FDF72AFC0C
:10448000A36AB18A9B6B606A9847E96829B18B0778
:1044900003D10B79A32B08BF002120460223002261
:1044A000FFF732FFB08A70BD002389681A46FFF714
:1044B0002BBF00002DE9F8430C4689680546FDF73F
:1044C000A1FEE668002E57D07768296AFBB209780A
:1044D0008E2BA36819BF012704F10C063F0A08368A
:1044E000072903F00F024BD1022A47D11A099A2A51
:1044F00048D133681A79302A40D19B68002B3DD1CE
:104500000A212846FDF76BFE2A6AD36A128D32B95A
:1045100028463168404ABDE8F843FDF791BD597817
:10452000C9070FD559682846FDF759FE022FAB6A17
:104530000BD8D3F8BC40002302211A46686AA04772
:10454000012417E0013A0833E1E772681179322952
:10455000EFD1B46821793029EBD191685B6C0122ED
:10456000686A09099847A168002301222846FFF7D5
:10457000CBFE0324A74226D8BDE8F8830024F9E740
:10458000022AFBD140F2C932B2EB131FF6D13368D5
:104590001A79302AF2D19B68002BEFD013F0030474
:1045A000ECD11B792F2BE5D1AB6A22462146D3F8FB
:1045B000BC80686A2346C04733682246284699680B
:1045C000FDF78AFFBCE704F10108B84556F824104E
:1045D0004FEA84031AD20A79322A17D13344D3F826
:1045E000049099F80430302B10D18968AB6A00220E
:1045F0005B6C686A09099847002301222846D9F8AC
:104600000810FFF781FE08F10104B3E72846FDF723
:10461000F9FDA046F7E700BF4E93091010B5026AF6
:10462000044612780B46072A06D0022A04D0BDE8B9
:104630001040064AFDF704BD20461946FFF73AFF31
:104640002046BDE81040FDF7A5BB00BF61930910EF
:10465000D1E90212FFF710BE036A10B51A8B0446A7
:10466000FFF7F8FE01462046BDE81040FEF79CBD6E
:104670002DE9F04F884685B00446422102AA08F190
:10468000080013F0F9FE00278346BA46236A1E8B02
:104690005F450AD1D8F80C100B79032B51D1324663
:1046A0002046FDF7A8FC054659E0029B6C2153F813
:1046B000273003AA03F10800019313F0DDFE039BEA
:1046C000054619680A09732A0DD02046FDF79AFDA0
:1046D0004FF00109A94528D3019BD96869B120464B
:1046E000FDF790FD09E0022809D02046294AFDF790
:1046F000A7FC35462E460AF1010A0137C8E759687A
:104700000B09412B0DD040F6EC429342F2D041F21E
:10471000E912934207D040F2D5529342E5D10425E5
:10472000E8E70125E6E70325E4E7039B002253F8C9
:104730002910A36A606A1B6D0909984709F10109EC
:10474000C8E7442B17D18F68324639462046FDF71B
:1047500052FC0546BA69D38A43F00103D38200278D
:10476000ABEB0A0ABA450BD829462046FEF71CFDDA
:1047700005B0BDE8F08F32462046FFF76BFE92E7AA
:10478000A36A0121D3F8BC600023606A1A46B047CF
:104790000137E7E76C9309102DE9F3418D68044672
:1047A00005F00F030A2B0E4607D0002D31D015F06F
:1047B00003012ED12B79652B1ED100950025652193
:1047C00001AA684613F058FE002140F2CA52019B2C
:1047D00003EB8000834215D140F21A43F2689A42FB
:1047E00037D1236A1F78B7B1314620463A4A02B022
:1047F000BDE8F041FDF724BC622BEDD1AB6800931E
:10480000ED68DCE753F8047B97420CBF01310331BC
:10481000E0E70021E0E7A36A606A5B6B9847A36A60
:10482000606A05219B6B9847A36A3A46D3F8A0308B
:10483000606A012198472946204601AAFDF7F8FA47
:1048400002223946A36A606ADB6A02B0BDE8F04121
:104850001847A36A606A5B6B984706F10C006A46CA
:104860006A2113F009FE00270646D4E90903B7427E
:1048700013D100223146D3F8A0309847294620466C
:1048800001AAFDF7D5FA0025D4E90903B5420DD1F7
:10489000DB6D984702B0BDE8F081009A9B6B52F83F
:1048A00027200137916809099847DEE7009ADB6AFB
:1048B00052F825800122D8F808703F0939469847F8
:1048C000D8F80C1029B939462046FEF76DFC0135A1
:1048D000DAE70909F8E700BF8493091037B5044601
:1048E0000D46836A00215B6B406A9847A36A606A41
:1048F0001B6B0F2198472946204601AAFDF798FA1D
:104900002046019903B0BDE83040FEF74DBC0000E1
:104910002DE9F04F9BB0CDE902011020144605F0BF
:10492000CDFF4FF050431A689D4B002153F82230C1
:1049300006461B695822436004A893F069FE4FF0B5
:10494000FF33012113A809938DF8104005F0E0FF13
:10495000039B0122D90041F0020113A806F016F8CA
:1049600001230021436016A80EF0F2F8029A8D4B45
:10497000002193F85032126804A8FDF744FA054666
:1049800011A800F08FFE4FF0000B874B0B9F01909A
:104990000D900E930FB1059C1CB30B9C14B1059B9D
:1049A000002B3DD000275946019800F082FEDFF829
:1049B000F8910B9CDFF8F4A1DDF81480002C00F0D6
:1049C0003B81B8F1000F00F0F3800C9C04A8E16873
:1049D000FDF7ABFA4046A38A069A03990CF078FBE0
:1049E0002EE13B8B0122042B394604A807D1FEF7A8
:1049F000A5FA079BBF689B4538BF9B46CAE7FFF7F0
:104A0000F1F83B8D9C42F4D2FB6A03EBC40113F82E
:104A10003430012B02D1384616F0B4FB0134F0E7F4
:104A2000E28A520716D5218D013913D3E76A4FEA7E
:104A3000C10E07EBC102507810F0020F25D04BB128
:104A4000D3E9008C92E8030083E8030047F80E8066
:104A5000C2F804C04FF0000300272384B4F828C034
:104A6000674518DB00239C454ED1D4F804E0BEF125
:104A7000000F08D000200346BEF828A0504553DBA5
:104A8000002B00F38A80A46888E7002BCCD1012892
:104A900008BF1346C8E72378D4F82C80012B4FEACF
:104AA000C70A08EBC70905D1D9F804300A2B12D17F
:104AB0000137D3E718F837300DD9012B0BD14FF060
:104AC000030308F80A30238B032B16D0E38A43F044
:104AD0001003E38203E018F80A30032BF3D018F830
:104AE0000A30042B03D099F80130DB07E0D5238C82
:104AF0005A1C2284A9F80230DAE7D9F8040009F038
:104B0000DFFF0128EBDCE1E7E26A02EBC30112F808
:104B10003320052A06D14A78D7075FBF228C4A8006
:104B20000132228401339EE7DEF82C2002EBC0091B
:104B300012F83020053A012A14D8002710E0E26A62
:104B400002EBC70812F83720062A08D1D9F804105A
:104B5000D8F80420914204BFA8F80230013301378D
:104B6000BC45ECD1013089E7E06A00EBC20110F8E6
:104B70003200062802D14878C00702D54888184478
:104B8000488001329445EFD1628B12FA83F262833E
:104B9000228C12FA83F3238475E70022F2E700BF28
:104BA0003C240020DC28002044990A104C9B0A1069
:104BB000238B042B17D10F9B1BB9584601F066FDC0
:104BC0000F9000230D934C4B0322214604A8109311
:104BD000FEF7B4F9059B23B90422214604A8FEF789
:104BE000ADF9A468E8E6023B012B21D837B95B4652
:104BF00007AA05A911A804F09FF90746CDE90D7A87
:104C00000222214604A8FEF7EDFF059B002BE8D108
:104C10000322214604A8FEF7E5FF059B002BE0D107
:104C20000422214604A8FEF7DDFF0028F8D0D8E7CB
:104C3000019BCDE90D39E3E7B8F1000F7FF4C5AE74
:104C4000DDF81490D5F81080B9F1000F12D001985A
:104C500000F037FD002F3DD10F9808B101F02BFD7A
:104C6000029813F0F9FD002D38D1059800283BD0AB
:104C700009F0B8FF139C1898C4F3DC0464000334F3
:104C800000EB9400800005F019FE24F003040444B6
:104C9000F460DDE91441B06001F1040CA1450BD1D1
:104CA0000023189A9342D2D0199951F82300F16841
:104CB00041F823000133F5E751F839303BB1042BBB
:104CC0001FBF5CF83920DB08521020F8123009F1C0
:104CD0000109E3E7384604F051F9BDE7AC6828461E
:104CE00016F00EFA2546BEE72A46314640461BB06E
:104CF000BDE8F04F00F0CEBD1C9A0A104FF05043B3
:104D00001A68044B82B053F82230186801ABC01AFD
:104D100002B070473C24002008B5FFF7EFFF4FF0CA
:104D200050431A68044B53F822305B68984201D311
:104D300016F084F808BD00BF3C2400204379012B05
:104D400007D083681944036981605A8C9142C8BFB7
:104D500059847047002383714379012B1EBFC26AB7
:104D6000036A43F8212070476FF00301FFF7E6BFA5
:104D70000421FFF7E3BF6FF00201FFF7DFBF034637
:104D8000426A4079114403288ABF586B184680183C
:104D900059627047827903460AB118467047C26A61
:104DA00040791144032801D8D962F6E7986AD9629C
:104DB0000244586B1044704710B50C460121FFF7B0
:104DC000E9FF047010BD10B51446FFF7B7FF0121CD
:104DD000FFF7E0FF047010BD53220121FFF7F3BF7E
:104DE00054220121FFF7EFBF57220121FFF7EBBF4C
:104DF00058220221FFF7E7BF59224FF0FF31FFF79A
:104E0000E2BF5A220021FFF7DEBF5B220021FFF73D
:104E1000DABF5D224FF0FF31FFF7D5BF00290DBF8C
:104E20005E225F2203210021FFF7CDBFA1F13002F6
:104E3000D2B20021FFF7C7BF62226FF00101FFF776
:104E4000C2BF10B563224FF0FF310446FFF7BBFF2E
:104E50000123A37110BD01F1640210B5D2B2494221
:104E60000446FFF7B0FF0123A37110BD10B504463F
:104E700001F16702D2B24942FFF7A5FF2269D38A46
:104E800043F00103D38210BD38B504461D46FFF739
:104E90009AFF2A462046BDE838400149FBF7EEBD9F
:104EA000954D001070B504460D46C068194616466B
:104EB00000F06AFC3246034629462046BDE87040B1
:104EC000FFF7E2BF0B4610220121FFF7EBBF1132C3
:104ED0000B46D2B20121FFF7E5BF20B40B4602F129
:104EE00014055100C1F10101EAB25DF8045BFFF75E
:104EF000D9BF16320B46D2B24FF0FF31FFF7D2BF07
:104F000019320B46D2B20021FFF7CCBF70B41D4658
:104F1000C46826786388042E04BF666846F8235068
:104F20005D1C658070BCFFF7AFBF03F1280113461D
:104F3000CAB20021FFF7A8BF022A02F12A020B46DB
:104F4000D2B20CBF0121C1F10101FFF79DBF0329BE
:104F50000AD004290AD101210B460A4443EA8203FC
:104F6000C9432F22FFF790BF0021F5E7002102235C
:104F7000F3E70B4630220139FFF786BF10B4144621
:104F800041EA0223214431225DF8044BFFF77CBF44
:104F9000F8B516461F46FFF7D1FE8479054604BBD7
:104FA0004379022B25D9C46A036AC4F1FF2453F85C
:104FB000273004F57F04FE34442E1C4412D814F12B
:104FC000400F14DB3F2CD4BF00270127E41B2846E9
:104FD000B91CFFF7DFFE06706FB9442E98BF40344E
:104FE0004470F8BD7F2C94BF00270127EEE701270E
:104FF000ECE70127EBE76B79442E98BF04F580447A
:10500000042B05D1B4F5004F24BF012385F83830B7
:1050100064F07F03E41143708470E2E70B4610B53F
:10502000422200210446FFF7B3FF0123A37110BD04
:10503000F8B505460C46164621F40047CAB90B04DC
:105040000ED55921FFF7B8FE59212846FFF7B4FEC7
:1050500059212846FFF7B0FE59212846FFF7ACFE3C
:105060003B46422200212846FFF792FF0123AB7105
:10507000F8BD3B4640220021FFF78AFF210A21F0BC
:105080007F0131432846C9B2FFF796FEEEE70B4693
:10509000B2FA82F120B4490902F14705EAB24900A7
:1050A0005DF8045BFFF774BF0B464B220121FFF74D
:1050B0006FBF0B4610B54A2200210446FFF768FF78
:1050C0000123A37110BD0000264B2DE9F047D3F852
:1050D0004C320446022B89460ED88669B1420BD960
:1050E00040F2FF77C56A43698E1BED1A56EA050345
:1050F00004D1E36AC4E90539BDE8F087062E01D979
:105100000F2D1AD91F2DAA4628BF4FF01F0A55454B
:1051100010D8032EB04628BF4FF0030801212046C7
:10512000FFF72DFE4AEA48130370A5EB0A05A6EB2C
:105130000806DBE74FF00008F0E7BE42B04628BFA4
:10514000B84602212046FFF71AFE4FEA181303F073
:1051500070032B4363F07F03AA46037080F801803D
:10516000E3E700BFDC28002010B5044631B9552222
:105170004FF0FF31BDE81040FFF725BE022904D1F2
:10518000FFF72AFE2046FFF740FE56226FF002018D
:105190002046EFE7134621B143224FF0FF31FFF7DE
:1051A000F7BE4422F9E7134621B145224FF0FF3103
:1051B000FFF7EEBE4622F9E7322938B5044611D092
:1051C000332912D000252939CAB220464FF0FF31C9
:1051D000FFF7F9FD65B12046BDE83840D322002134
:1051E000FFF7F1BD01250621EDE701250721EAE7DB
:1051F00038BD012A10B40B46044608D0022A0ED14D
:1052000069224FF0FF315DF8044BFFF7DCBD11461A
:105210001B322046D2B25DF8044BFFF743BE4FF07D
:10522000FF31F5E770B50D46044611462AB92B4605
:105230001322BDE87040FFF735BE022A04D1FFF704
:10524000CBFD2046FFF7DDFD2B4618226FF0010154
:105250002046EEE710B4044643B90F2A06D8503A68
:1052600001215DF8044BD2B2FFF7ADBD03F124017B
:10527000204613465DF8044BCAB20121FFF704BE75
:1052800010B404464BB90F2A07D8403A4FF0FF310B
:105290005DF8044BD2B2FFF796BD03F1260120461C
:1052A00013465DF8044BCAB24FF0FF31FFF7ECBD77
:1052B00070B4D2B2DDE9036503EB460443EA06238A
:1052C00015B101320134D2B2091B70BCFFF7DCBD4D
:1052D00007B5CDE900230B4634220021FFF7E8FF94
:1052E00003B05DF804FB07B5CDE900230B46362279
:1052F0004FF0FF31FFF7DCFF03B05DF804FB10B5A2
:105300000446C06800F057FA2322034601212046D4
:10531000BDE81040FFF7B8BD01F110033F2B73B596
:1053200006460C4608D8A1F180020121D2B202B093
:10533000BDE87040FFF747BD012122220DF10505B0
:10534000FFF741FD294604F07F00E3B2E4112A464D
:1053500005F8010D601C0128F5D8013403F0400365
:1053600013D11BB97F2305F8013C951E491B30461C
:10537000FFF710FD01466B1E01AC13F8012FA3428D
:1053800007D15B1BC25402B070BD002BEED00023CE
:10539000E9E762F07F0201F8012BEEE770B51446F1
:1053A0001A4605460B690499E6B20A4313BFE14366
:1053B000C4F1010120222122FFF7A8FD3146284631
:1053C000BDE87040FFF7F8BC10B41C4622430B69DF
:1053D00007BF3222012133224FF0FF315DF8044B29
:1053E000FFF794BD0D2910B504460BD10949C068DB
:1053F00000F0E1F92322034601212046BDE81040D8
:10540000FFF742BD4231CAB2BDE810400121FFF7AB
:10541000DABC00BFD4BE0A1038B504460D460F21D1
:10542000FFF7E0FF20462946FFF794FC02215C22AB
:10543000FFF7C9FC2046BDE838406FF00301FFF7D5
:105440007DBCF8B504460F4616461D460F21FFF7F2
:10545000C9FF2046FFF7D5FC39462046FFF7DEFDA1
:1054600031462046FFF776FCFFF7BEFC01222046BE
:105470002121FFF72CFD20460821FFF79DFE2A463B
:105480002046BDE8F8400021FFF784BE437970B59F
:10549000012B044614D00025C26B436A05649B1A95
:1054A000C3632069038DAB420CD86379032B1BD1F6
:1054B000606AE36AA0622363184405F018FA606327
:1054C000012070BDC36A03EBC50213F83530052B0C
:1054D00008D1012120469678FFF751FC0670236C15
:1054E000013323640135DCE7042BE9D1D4E90A1345
:1054F000626A8A4202D1216B994203D00020A262E3
:105500002363DEE794F838301BB10649064814F0EF
:105510006FFCE268C38A5268616B006900F0A0F911
:10552000CEE700BF96930910A8B20A1000232DE918
:10553000F74F1646C0E904230122378C836083713C
:10554000C362436280F83830738C0446FF1808BF8A
:105550001746B6F82490B6F81A804FEA8905013F3D
:10556000826105F0040508F003021543B6F816A0A1
:10557000FA0002F07802B38BB6F81EB041710AF05F
:105580000F0A15433F094FEA59094FEA980847EABD
:10559000090242EA0A0242EA08021A4352EA0B02EC
:1055A00035D101212046FFF7EAFB05706379022B14
:1055B00018D9D4E90F787D0008F0010305F07E05C5
:1055C0004FEA5808BF091D4358EA07094FF0010187
:1055D000204618BF45F08005FFF7D1FB0570B9F1F3
:1055E000000FE8D1636AB18AE363E06800F0CCF8A9
:1055F0002B4902462046FBF741FA0025284F738BC2
:10560000B28B1344AB4248DD0022318D41E00121D1
:1056100020460193FFF7B3FB65F07F053A01057063
:105620004FEA8A15019B02F0300205F04005154350
:105630000BF001021543DA0002F0080215434FEAAD
:10564000880202F0040215434FEA490202F0020206
:105650001543BF084FEA59094FEA5A0A4FEA58085A
:105660005B084FEA5B0B92E7F36A03EBC2035878DF
:10567000C0070DD55888A8420AD15968E06800F0E3
:1056800083F8394602462046FBF7F8F90135B6E7BC
:1056900001329142E8DC0521F0E703B0BDE8F08F6C
:1056A0007F4D001010B50446442005F020F9C46079
:1056B00010BD10B50446C161880005F0FFF82062F6
:1056C00010BD10B50446006A05F020F92046BDE87B
:1056D000104005F01BB90000F8B588422DED028B93
:1056E00007460C4603D10120BDEC028BF8BD234BCD
:1056F000984201D10020F7E79942FBD009F0ACFABB
:105700000546204609F0A8FA8542F3D11C4B9D427C
:1057100013D17A6863689A42ECD100253E1D0434A7
:105720007B68AB42DFD954F8041F56F8040FFFF72B
:10573000D3FF0028DED00135F2E72146384609F0D4
:1057400055FD0028D6D00F4B9D42CCD138460BF0EA
:1057500011FE08EE100AB5EE408AF1EE10FAC2D141
:1057600020460BF007FE18EE103A00F0004003F060
:1057700000431B1A58425841B6E700BF04AC0A1058
:1057800044C30A10B4B50A10C90010B5012204467A
:1057900041F00201083005F0F9F843683BB9A3680D
:1057A000C3F3DC03013B5B0043F00103436040684B
:1057B000C0F34F0010BD70B505460E460024EB69DE
:1057C000A34208D8314605F114000DF082F8EC69C7
:1057D000013C204670BD2B6A314653F82400FFF788
:1057E0007BFF0028F5D10134E9E710B5012204461A
:1057F00015F0A0FC0378012B05D12378012B8CBF79
:1058000004230223037010BD70B505460E461046F2
:1058100019461C4615F07EFC03785A1E012A06D84C
:105820000022736821462846BDE870401847032BC4
:1058300002D101227368F5E73668042B2146B4468D
:10584000428808BF00232846BDE8704018BF0123E6
:10585000604708B5102005F04AF80123837008BDA1
:1058600010B5022403F00103C0E901128470C37073
:1058700010BD9DF80430426003F00103C370009B2B
:10588000039A8360029B81700373C36862F31F23D2
:10589000C360704770B5044623880D461046CBB1EF
:1058A0000A46002321460CF0A7F82346002213F8ED
:1058B000011B1D1B090605F1FF3503D4D30725D5B0
:1058C0001C4B19E013F8011BC1F3801606FA05F50D
:1058D0002A43EEE7A3786668042B0FD0052B16D079
:1058E000032B0A46A36831461DD10CF085F8124BF4
:1058F0000360E37853B1114B036007E010201049B7
:10590000A46809F09CF9C0E90154C66070BD10207C
:105910000C49257BE46809F092F9C4F31724C0E927
:105920000156C460F2E70CF067F8E378002BEDD085
:10593000C6E700BF78B70A1030B60A105CB70A1085
:1059400018B60A1000B60A1038B514461D4612F4EF
:10595000807218BF1A46FFF79DFF620902F0080225
:105960002A44E1B2BDE838400AF04CBA02F00F0315
:10597000022B10B5044608D00A460C490C480BF01F
:1059800067FB636A1860002010BD836A002012095B
:10599000834204D1238C042BF5D10649EEE7E16A5A
:1059A00051F820109142EFD00130F1E7A193091096
:1059B00060B20A10A793091070B50646B2B19007FD
:1059C00014D110792E2811D194687CB1A2070DD181
:1059D0006568EAB2922A09D12D0A022D06D101206A
:1059E000A2681A60E268049B1A6070BD0A46044807
:1059F00004490BF02DFB736A18600020F5E700BF27
:105A000060B20A10B39309107FB504460D461046E4
:105A100003A91E4612F0ECFA48B92A460B490C4875
:105A20000BF016FB636A1860002004B070BD039889
:105A300009F0FAF930EA06020346F6D02A4605498B
:105A4000009603480BF004FBECE700BFCC93091071
:105A500060B20A10D2930910038C70B5032BC46A8C
:105A600003D10023856A9D4205D144F82120FAF72D
:105A7000F8FC012070BD54F82360964201D0013338
:105A8000F1E70020F6E7FAF755BD032910B5044603
:105A9000018442620FD1826A0021C06A920092F0B2
:105AA000B7FD01212046FAF7B4FC2046BDE81040BE
:105AB0000021FAF70DBD042914BF01210221F1E7ED
:105AC00000F00F03022B02D1000913F0EDBC0148D6
:105AD000704700BFAE660A1070B5054610460E4608
